:0A0A0900C0F9A4B0999282F8809021
:040A130002100000CD
:1009E900E4FDFCC3ED9FEC9E5015E4FBFA0BBB0044
:0F09F900010AEB647B4A70F50DBD00010C80E430
:010A080022CB
:10080000AB07AA067C007D0A1209618C0E8D0F7C55
:10081000007D0AAF03AE02120961AA06AB077C0095
:100820007D0A1209618C0A8D0B7C007D0AAF03AE34
:1008300002120961AA06AB077C007D0A1209618CCD
:100840000C8D0D7C007D0AAF03AE02120961AA0671
:10085000AB077C007D0A1209618C088D097C007D44
:100860000AAF03AE02120961AA06AB07C2A0C2A179
:10087000C2A2C2A374092509F582740A3508F5835A
:10088000E493F580C2A07F017E001209E9D2A07432
:1008900009250DF582740A350CF583E493F580C2C1
:1008A000A11209E9D2A17409250BF582740A350A4F
:1008B000F583E493F580C2A21209E9D2A274092556
:1008C0000FF582740A350EF583E493F580C2A31206
:0408D00009E9D2A3BD
:0108D4002201
:1009B60020B30B0511E5117002051030B3FD20B709
:1009C60019E5114510700875102775110F8008E597
:1009D6001115117002151030B7FDAF11AE101208C7
:0309E6000080CDC1
:030000000208D51E
:0C08D500787FE4F6D8FD75811102091C43
:10096100BC000BBE0029EF8DF084FFADF022E4CC7A
:10097100F875F008EF2FFFEE33FEEC33FCEE9DEC43
:10098100984005FCEE9DFE0FD5F0E9E4CEFD22ED89
:10099100F8F5F0EE8420D21CFEADF075F008EF2FD3
:1009A100FFED33FD4007985006D5F0F222C398FDC4
:0509B1000FD5F0EA2261
:1008E1000209B6E493A3F8E493A34003F68001F26E
:1008F10008DFF48029E493A3F85407240CC8C33318
:10090100C4540F4420C8834004F456800146F6DFE6
:10091100E4800B0102040810204080900A13E47E59
:10092100019360BCA3FF543F30E509541FFEE493DB
:10093100A360010ECF54C025E060A840B8E493A3A2
:10094100FAE493A3F8E493A3C8C582C8CAC583CACD
:10095100F0A3C8C582C8CAC583CADFE9DEE780BE85
:010A170000DE
:00000001FF
